{
  "contractName": "BXTToken",
  "abi": [
    {
      "constant": true,
      "inputs": [],
      "name": "value",
      "outputs": [
        {
          "name": "",
          "type": "uint256"
        }
      ],
      "payable": false,
      "stateMutability": "view",
      "type": "function"
    },
    {
      "constant": true,
      "inputs": [],
      "name": "owner",
      "outputs": [
        {
          "name": "",
          "type": "address"
        }
      ],
      "payable": false,
      "stateMutability": "view",
      "type": "function"
    },
    {
      "constant": false,
      "inputs": [
        {
          "name": "val",
          "type": "uint256"
        }
      ],
      "name": "deposit",
      "outputs": [],
      "payable": false,
      "stateMutability": "nonpayable",
      "type": "function"
    },
    {
      "inputs": [],
      "payable": false,
      "stateMutability": "nonpayable",
      "type": "constructor"
    }
  ],
  "bytecode": "0x6060604052341561000f57600080fd5b60c860008190555033600160006101000a81548173ffffffffffffffffffffffffffffffffffffffff021916908373ffffffffffffffffffffffffffffffffffffffff1602179055506101bf806100676000396000f300606060405260043610610057576000357c0100000000000000000000000000000000000000000000000000000000900463ffffffff1680633fa4f2451461005c5780638da5cb5b14610085578063b6b55f25146100da575b600080fd5b341561006757600080fd5b61006f6100fd565b6040518082815260200191505060405180910390f35b341561009057600080fd5b610098610106565b604051808273ffffffffffffffffffffffffffffffffffffffff1673ffffffffffffffffffffffffffffffffffffffff16815260200191505060405180910390f35b34156100e557600080fd5b6100fb600480803590602001909190505061012c565b005b60008054905090565b600160009054906101000a900473ffffffffffffffffffffffffffffffffffffffff1681565b600160009054906101000a900473ffffffffffffffffffffffffffffffffffffffff1673ffffffffffffffffffffffffffffffffffffffff163373ffffffffffffffffffffffffffffffffffffffff161415151561018957600080fd5b80600081905550505600a165627a7a72305820f1ef6672582295dd3110d82e48390f31aba3b65154fc2ad8573253f16eddf2060029",
  "source": "pragma solidity ^0.4.4;\n\n\ncontract BXTToken {\n    uint public value;\n    address public owner;\n\n    function BXTToken() {\n        // constructor\n        value = 200;\n        owner = msg.sender;\n    }\n\n    modifier onlyOwner {\n        require(msg.sender != owner);\n        _;\n    }\n\n    function value() constant returns (uint) {\n        return value;\n    }\n\n    function deposit(uint val) onlyOwner {\n        value = val;\n    }\n}\n",
  "sourcePath": "/home/ayrton/env/git/kriskplatform/kriskledger/contracts/BXTToken.sol",
  "compiler": {
    "name": "solc",
    "version": "0.4.18+commit.9cf6e910.Emscripten.clang"
  },
  "schemaVersion": "1.0.1",
  "updatedAt": "2018-03-24T03:10:23.428Z"
}