{
  "contractName": "HedgeFund",
  "abi": [
    {
      "constant": false,
      "inputs": [
        {
          "name": "value",
          "type": "uint256"
        }
      ],
      "name": "updateDepositLimit",
      "outputs": [],
      "payable": false,
      "stateMutability": "nonpayable",
      "type": "function"
    },
    {
      "constant": true,
      "inputs": [],
      "name": "owner",
      "outputs": [
        {
          "name": "",
          "type": "address"
        }
      ],
      "payable": false,
      "stateMutability": "view",
      "type": "function"
    },
    {
      "constant": true,
      "inputs": [],
      "name": "balance",
      "outputs": [
        {
          "name": "",
          "type": "uint256"
        }
      ],
      "payable": false,
      "stateMutability": "view",
      "type": "function"
    },
    {
      "constant": false,
      "inputs": [],
      "name": "deposit",
      "outputs": [],
      "payable": true,
      "stateMutability": "payable",
      "type": "function"
    },
    {
      "constant": true,
      "inputs": [],
      "name": "depositLimit",
      "outputs": [
        {
          "name": "",
          "type": "uint256"
        }
      ],
      "payable": false,
      "stateMutability": "view",
      "type": "function"
    },
    {
      "inputs": [],
      "payable": true,
      "stateMutability": "payable",
      "type": "constructor"
    },
    {
      "anonymous": false,
      "inputs": [
        {
          "indexed": false,
          "name": "who",
          "type": "address"
        },
        {
          "indexed": false,
          "name": "value",
          "type": "uint256"
        }
      ],
      "name": "Deposit",
      "type": "event"
    },
    {
      "anonymous": false,
      "inputs": [
        {
          "indexed": false,
          "name": "oldValue",
          "type": "uint256"
        },
        {
          "indexed": false,
          "name": "newValue",
          "type": "uint256"
        }
      ],
      "name": "FundBalanceUpdate",
      "type": "event"
    },
    {
      "anonymous": false,
      "inputs": [
        {
          "indexed": false,
          "name": "old",
          "type": "uint256"
        },
        {
          "indexed": false,
          "name": "newVal",
          "type": "uint256"
        }
      ],
      "name": "DepositLimitUpdate",
      "type": "event"
    }
  ],
  "bytecode": "0x606060405260003411151561001357600080fd5b336000806101000a81548173ffffffffffffffffffffffffffffffffffffffff021916908373ffffffffffffffffffffffffffffffffffffffff16021790555060c860028190555034600181905550610358806100716000396000f30060606040526004361061006d576000357c0100000000000000000000000000000000000000000000000000000000900463ffffffff16806327debc0f146100725780638da5cb5b14610095578063b69ef8a8146100ea578063d0e30db014610113578063ecf708581461011d575b600080fd5b341561007d57600080fd5b6100936004808035906020019091905050610146565b005b34156100a057600080fd5b6100a86101fc565b604051808273ffffffffffffffffffffffffffffffffffffffff1673ffffffffffffffffffffffffffffffffffffffff16815260200191505060405180910390f35b34156100f557600080fd5b6100fd610225565b6040518082815260200191505060405180910390f35b61011b61022f565b005b341561012857600080fd5b610130610326565b6040518082815260200191505060405180910390f35b6000809054906101000a900473ffffffffffffffffffffffffffffffffffffffff1673ffffffffffffffffffffffffffffffffffffffff163373ffffffffffffffffffffffffffffffffffffffff161415156101a157600080fd5b60c881101515156101b157600080fd5b7fb8513a31bb0867ec8e88601aea6978c6a72c3288d91d7f4000bcc5be66f65fe060025482604051808381526020018281526020019250505060405180910390a18060028190555050565b60008060009054906101000a900473ffffffffffffffffffffffffffffffffffffffff16905090565b6000600154905090565b6000809054906101000a900473ffffffffffffffffffffffffffffffffffffffff1673ffffffffffffffffffffffffffffffffffffffff163373ffffffffffffffffffffffffffffffffffffffff1614151561028a57600080fd5b60003411151561029957600080fd5b600254341115156102a957600080fd5b346001600082825401925050819055507fe1fffcc4923d04b559f4d29a8bfc6cda04eb5b0d3c460751c2402c5c5cc9109c3334604051808373ffffffffffffffffffffffffffffffffffffffff1673ffffffffffffffffffffffffffffffffffffffff1681526020018281526020019250505060405180910390a1565b600254815600a165627a7a7230582082682fb23cb6e5cb34dcdf70b0ac0f79fef31993be8cef3bc7d8762a1ad861660029",
  "source": "pragma solidity ^0.4.18;\n\n\ncontract HedgeFund {\n    address public owner;\n    uint public balance;\n    uint public depositLimit;\n    event Deposit(address who, uint value);\n    event FundBalanceUpdate(uint oldValue, uint newValue);\n    event DepositLimitUpdate(uint old, uint newVal);\n\n    modifier only_owner {\n        require(msg.sender == owner);\n        _;\n    }\n\n    modifier ether_required {\n        require(msg.value > 0 wei);\n        _;\n    }\n\n    function HedgeFund() public payable ether_required {\n        owner = msg.sender;\n        depositLimit = 200;\n        balance = msg.value;\n    }\n\n    function updateDepositLimit(uint value) public only_owner {\n        require(value >= 200);\n        DepositLimitUpdate(depositLimit, value);\n        depositLimit = value;\n    }\n\n    function deposit() public only_owner ether_required payable {\n        require(msg.value > depositLimit);\n\n        balance += msg.value;\n        Deposit(msg.sender, msg.value);\n    }\n\n    function balance() public constant returns (uint) {\n        return balance;\n    }\n\n    function owner() public constant returns (address) {\n        return owner;\n    }\n}\n\n",
  "sourcePath": "/home/ayrton/env/git/kriskplatform/kriskledger/contracts/coins/HedgeFund.sol",
  "compiler": {
    "name": "solc",
    "version": "0.4.18+commit.9cf6e910.Emscripten.clang"
  },
  "schemaVersion": "1.0.1",
  "updatedAt": "2018-03-24T02:53:33.538Z"
}