{
  "contractName": "TronToken",
  "abi": [
    {
      "constant": true,
      "inputs": [],
      "name": "name",
      "outputs": [
        {
          "name": "",
          "type": "string"
        }
      ],
      "payable": false,
      "stateMutability": "view",
      "type": "function"
    },
    {
      "constant": false,
      "inputs": [],
      "name": "stop",
      "outputs": [],
      "payable": false,
      "stateMutability": "nonpayable",
      "type": "function"
    },
    {
      "constant": false,
      "inputs": [
        {
          "name": "_spender",
          "type": "address"
        },
        {
          "name": "_value",
          "type": "uint256"
        }
      ],
      "name": "approve",
      "outputs": [
        {
          "name": "success",
          "type": "bool"
        }
      ],
      "payable": false,
      "stateMutability": "nonpayable",
      "type": "function"
    },
    {
      "constant": true,
      "inputs": [],
      "name": "totalSupply",
      "outputs": [
        {
          "name": "",
          "type": "uint256"
        }
      ],
      "payable": false,
      "stateMutability": "view",
      "type": "function"
    },
    {
      "constant": false,
      "inputs": [
        {
          "name": "_from",
          "type": "address"
        },
        {
          "name": "_to",
          "type": "address"
        },
        {
          "name": "_value",
          "type": "uint256"
        }
      ],
      "name": "transferFrom",
      "outputs": [
        {
          "name": "success",
          "type": "bool"
        }
      ],
      "payable": false,
      "stateMutability": "nonpayable",
      "type": "function"
    },
    {
      "constant": true,
      "inputs": [],
      "name": "decimals",
      "outputs": [
        {
          "name": "",
          "type": "uint256"
        }
      ],
      "payable": false,
      "stateMutability": "view",
      "type": "function"
    },
    {
      "constant": false,
      "inputs": [
        {
          "name": "_value",
          "type": "uint256"
        }
      ],
      "name": "burn",
      "outputs": [],
      "payable": false,
      "stateMutability": "nonpayable",
      "type": "function"
    },
    {
      "constant": true,
      "inputs": [
        {
          "name": "",
          "type": "address"
        }
      ],
      "name": "balanceOf",
      "outputs": [
        {
          "name": "",
          "type": "uint256"
        }
      ],
      "payable": false,
      "stateMutability": "view",
      "type": "function"
    },
    {
      "constant": true,
      "inputs": [],
      "name": "stopped",
      "outputs": [
        {
          "name": "",
          "type": "bool"
        }
      ],
      "payable": false,
      "stateMutability": "view",
      "type": "function"
    },
    {
      "constant": true,
      "inputs": [],
      "name": "symbol",
      "outputs": [
        {
          "name": "",
          "type": "string"
        }
      ],
      "payable": false,
      "stateMutability": "view",
      "type": "function"
    },
    {
      "constant": false,
      "inputs": [
        {
          "name": "_to",
          "type": "address"
        },
        {
          "name": "_value",
          "type": "uint256"
        }
      ],
      "name": "transfer",
      "outputs": [
        {
          "name": "success",
          "type": "bool"
        }
      ],
      "payable": false,
      "stateMutability": "nonpayable",
      "type": "function"
    },
    {
      "constant": false,
      "inputs": [],
      "name": "start",
      "outputs": [],
      "payable": false,
      "stateMutability": "nonpayable",
      "type": "function"
    },
    {
      "constant": false,
      "inputs": [
        {
          "name": "_name",
          "type": "string"
        }
      ],
      "name": "setName",
      "outputs": [],
      "payable": false,
      "stateMutability": "nonpayable",
      "type": "function"
    },
    {
      "constant": true,
      "inputs": [
        {
          "name": "",
          "type": "address"
        },
        {
          "name": "",
          "type": "address"
        }
      ],
      "name": "allowance",
      "outputs": [
        {
          "name": "",
          "type": "uint256"
        }
      ],
      "payable": false,
      "stateMutability": "view",
      "type": "function"
    },
    {
      "inputs": [
        {
          "name": "_addressFounder",
          "type": "address"
        }
      ],
      "payable": false,
      "stateMutability": "nonpayable",
      "type": "constructor"
    },
    {
      "anonymous": false,
      "inputs": [
        {
          "indexed": true,
          "name": "_from",
          "type": "address"
        },
        {
          "indexed": true,
          "name": "_to",
          "type": "address"
        },
        {
          "indexed": false,
          "name": "_value",
          "type": "uint256"
        }
      ],
      "name": "Transfer",
      "type": "event"
    },
    {
      "anonymous": false,
      "inputs": [
        {
          "indexed": true,
          "name": "_owner",
          "type": "address"
        },
        {
          "indexed": true,
          "name": "_spender",
          "type": "address"
        },
        {
          "indexed": false,
          "name": "_value",
          "type": "uint256"
        }
      ],
      "name": "Approval",
      "type": "event"
    }
  ],
  "bytecode": "0x60606040526040805190810160405280600681526020017f54726f6e6978000000000000000000000000000000000000000000000000000081525060009080519060200190620000519291906200022b565b506040805190810160405280600381526020017f5452580000000000000000000000000000000000000000000000000000000000815250600190805190602001906200009f9291906200022b565b50600660025560006005556000600660006101000a81548160ff0219169083151502179055506000600660016101000a81548173ffffffffffffffffffffffffffffffffffffffff021916908373ffffffffffffffffffffffffffffffffffffffff16021790555034156200011357600080fd5b604051602080620013f98339810160405280805190602001909190505033600660016101000a81548173ffffffffffffffffffffffffffffffffffffffff021916908373ffffffffffffffffffffffffffffffffffffffff16021790555067016345785d8a000060058190555067016345785d8a0000600360008373ffffffffffffffffffffffffffffffffffffffff1673ffffffffffffffffffffffffffffffffffffffff168152602001908152602001600020819055508073ffffffffffffffffffffffffffffffffffffffff1660007fddf252ad1be2c89b69c2b068fc378daa952ba7f163c4a11628f55a4df523b3ef67016345785d8a00006040518082815260200191505060405180910390a350620002da565b828054600181600116156101000203166002900490600052602060002090601f016020900481019282601f106200026e57805160ff19168380011785556200029f565b828001600101855582156200029f579182015b828111156200029e57825182559160200191906001019062000281565b5b509050620002ae9190620002b2565b5090565b620002d791905b80821115620002d3576000816000905550600101620002b9565b5090565b90565b61110f80620002ea6000396000f3006060604052600436106100d0576000357c0100000000000000000000000000000000000000000000000000000000900463ffffffff16806306fdde03146100d557806307da68f514610163578063095ea7b31461017857806318160ddd146101d257806323b872dd146101fb578063313ce5671461027457806342966c681461029d57806370a08231146102c057806375f12b211461030d57806395d89b411461033a578063a9059cbb146103c8578063be9a655514610422578063c47f002714610437578063dd62ed3e14610494575b600080fd5b34156100e057600080fd5b6100e8610500565b6040518080602001828103825283818151815260200191508051906020019080838360005b8381101561012857808201518184015260208101905061010d565b50505050905090810190601f1680156101555780820380516001836020036101000a031916815260200191505b509250505060405180910390f35b341561016e57600080fd5b61017661059e565b005b341561018357600080fd5b6101b8600480803573ffffffffffffffffffffffffffffffffffffffff16906020019091908035906020019091905050610614565b604051808215151515815260200191505060405180910390f35b34156101dd57600080fd5b6101e56107d8565b6040518082815260200191505060405180910390f35b341561020657600080fd5b61025a600480803573ffffffffffffffffffffffffffffffffffffffff1690602001909190803573ffffffffffffffffffffffffffffffffffffffff169060200190919080359060200190919050506107de565b604051808215151515815260200191505060405180910390f35b341561027f57600080fd5b610287610b18565b6040518082815260200191505060405180910390f35b34156102a857600080fd5b6102be6004808035906020019091905050610b1e565b005b34156102cb57600080fd5b6102f7600480803573ffffffffffffffffffffffffffffffffffffffff16906020019091905050610c43565b6040518082815260200191505060405180910390f35b341561031857600080fd5b610320610c5b565b604051808215151515815260200191505060405180910390f35b341561034557600080fd5b61034d610c6e565b6040518080602001828103825283818151815260200191508051906020019080838360005b8381101561038d578082015181840152602081019050610372565b50505050905090810190601f1680156103ba5780820380516001836020036101000a031916815260200191505b509250505060405180910390f35b34156103d357600080fd5b610408600480803573ffffffffffffffffffffffffffffffffffffffff16906020019091908035906020019091905050610d0c565b604051808215151515815260200191505060405180910390f35b341561042d57600080fd5b610435610f30565b005b341561044257600080fd5b610492600480803590602001908201803590602001908080601f01602080910402602001604051908101604052809392919081815260200183838082843782019150505050505091905050610fa6565b005b341561049f57600080fd5b6104ea600480803573ffffffffffffffffffffffffffffffffffffffff1690602001909190803573ffffffffffffffffffffffffffffffffffffffff16906020019091905050611019565b6040518082815260200191505060405180910390f35b60008054600181600116156101000203166002900480601f0160208091040260200160405190810160405280929190818152602001828054600181600116156101000203166002900480156105965780601f1061056b57610100808354040283529160200191610596565b820191906000526020600020905b81548152906001019060200180831161057957829003601f168201915b505050505081565b3373ffffffffffffffffffffffffffffffffffffffff16600660019054906101000a900473ffffffffffffffffffffffffffffffffffffffff1673ffffffffffffffffffffffffffffffffffffffff161415156105f757fe5b6001600660006101000a81548160ff021916908315150217905550565b6000600660009054906101000a900460ff1615151561062f57fe5b3373ffffffffffffffffffffffffffffffffffffffff1660001415151561065257fe5b60008214806106dd57506000600460003373ffffffffffffffffffffffffffffffffffffffff1673ffffffffffffffffffffffffffffffffffffffff16815260200190815260200160002060008573ffffffffffffffffffffffffffffffffffffffff1673ffffffffffffffffffffffffffffffffffffffff16815260200190815260200160002054145b15156106e857600080fd5b81600460003373ffffffffffffffffffffffffffffffffffffffff1673ffffffffffffffffffffffffffffffffffffffff16815260200190815260200160002060008573ffffffffffffffffffffffffffffffffffffffff1673ffffffffffffffffffffffffffffffffffffffff168152602001908152602001600020819055508273ffffffffffffffffffffffffffffffffffffffff163373ffffffffffffffffffffffffffffffffffffffff167f8c5be1e5ebec7d5bd14f71427d1e84f3dd0314c0f7b2291e5b200ac8c7c3b925846040518082815260200191505060405180910390a36001905092915050565b60055481565b6000600660009054906101000a900460ff161515156107f957fe5b3373ffffffffffffffffffffffffffffffffffffffff1660001415151561081c57fe5b81600360008673ffffffffffffffffffffffffffffffffffffffff1673ffffffffffffffffffffffffffffffffffffffff168152602001908152602001600020541015151561086a57600080fd5b600360008473ffffffffffffffffffffffffffffffffffffffff1673ffffffffffffffffffffffffffffffffffffffff1681526020019081526020016000205482600360008673ffffffffffffffffffffffffffffffffffffffff1673ffffffffffffffffffffffffffffffffffffffff1681526020019081526020016000205401101515156108f957600080fd5b81600460008673ffffffffffffffffffffffffffffffffffffffff1673ffffffffffffffffffffffffffffffffffffffff16815260200190815260200160002060003373ffffffffffffffffffffffffffffffffffffffff1673ffffffffffffffffffffffffffffffffffffffff168152602001908152602001600020541015151561098457600080fd5b81600360008573ffffffffffffffffffffffffffffffffffffffff1673ffffffffffffffffffffffffffffffffffffffff1681526020019081526020016000206000828254019250508190555081600360008673ffffffffffffffffffffffffffffffffffffffff1673ffffffffffffffffffffffffffffffffffffffff1681526020019081526020016000206000828254039250508190555081600460008673ffffffffffffffffffffffffffffffffffffffff1673ffffffffffffffffffffffffffffffffffffffff16815260200190815260200160002060003373ffffffffffffffffffffffffffffffffffffffff1673ffffffffffffffffffffffffffffffffffffffff168152602001908152602001600020600082825403925050819055508273ffffffffffffffffffffffffffffffffffffffff168473ffffffffffffffffffffffffffffffffffffffff167fddf252ad1be2c89b69c2b068fc378daa952ba7f163c4a11628f55a4df523b3ef846040518082815260200191505060405180910390a3600190509392505050565b60025481565b80600360003373ffffffffffffffffffffffffffffffffffffffff1673ffffffffffffffffffffffffffffffffffffffff1681526020019081526020016000205410151515610b6c57600080fd5b80600360003373ffffffffffffffffffffffffffffffffffffffff1673ffffffffffffffffffffffffffffffffffffffff1681526020019081526020016000206000828254039250508190555080600360008073ffffffffffffffffffffffffffffffffffffffff1681526020019081526020016000206000828254019250508190555060003373ffffffffffffffffffffffffffffffffffffffff167fddf252ad1be2c89b69c2b068fc378daa952ba7f163c4a11628f55a4df523b3ef836040518082815260200191505060405180910390a350565b60036020528060005260406000206000915090505481565b600660009054906101000a900460ff1681565b60018054600181600116156101000203166002900480601f016020809104026020016040519081016040528092919081815260200182805460018160011615610100020316600290048015610d045780601f10610cd957610100808354040283529160200191610d04565b820191906000526020600020905b815481529060010190602001808311610ce757829003601f168201915b505050505081565b6000600660009054906101000a900460ff16151515610d2757fe5b3373ffffffffffffffffffffffffffffffffffffffff16600014151515610d4a57fe5b81600360003373ffffffffffffffffffffffffffffffffffffffff1673ffffffffffffffffffffffffffffffffffffffff1681526020019081526020016000205410151515610d9857600080fd5b600360008473ffffffffffffffffffffffffffffffffffffffff1673ffffffffffffffffffffffffffffffffffffffff1681526020019081526020016000205482600360008673ffffffffffffffffffffffffffffffffffffffff1673ffffffffffffffffffffffffffffffffffffffff168152602001908152602001600020540110151515610e2757600080fd5b81600360003373ffffffffffffffffffffffffffffffffffffffff1673ffffffffffffffffffffffffffffffffffffffff1681526020019081526020016000206000828254039250508190555081600360008573ffffffffffffffffffffffffffffffffffffffff1673ffffffffffffffffffffffffffffffffffffffff168152602001908152602001600020600082825401925050819055508273ffffffffffffffffffffffffffffffffffffffff163373ffffffffffffffffffffffffffffffffffffffff167fddf252ad1be2c89b69c2b068fc378daa952ba7f163c4a11628f55a4df523b3ef846040518082815260200191505060405180910390a36001905092915050565b3373ffffffffffffffffffffffffffffffffffffffff16600660019054906101000a900473ffffffffffffffffffffffffffffffffffffffff1673ffffffffffffffffffffffffffffffffffffffff16141515610f8957fe5b6000600660006101000a81548160ff021916908315150217905550565b3373ffffffffffffffffffffffffffffffffffffffff16600660019054906101000a900473ffffffffffffffffffffffffffffffffffffffff1673ffffffffffffffffffffffffffffffffffffffff16141515610fff57fe5b806000908051906020019061101592919061103e565b5050565b6004602052816000526040600020602052806000526040600020600091509150505481565b828054600181600116156101000203166002900490600052602060002090601f016020900481019282601f1061107f57805160ff19168380011785556110ad565b828001600101855582156110ad579182015b828111156110ac578251825591602001919060010190611091565b5b5090506110ba91906110be565b5090565b6110e091905b808211156110dc5760008160009055506001016110c4565b5090565b905600a165627a7a72305820e57090b683c44e876317ce8a20b03c29dd583187bfae2f23a9c179cf67ebed9a0029",
  "source": "pragma solidity ^0.4.11;\n\ncontract TronToken {\n    string public name = \"Tronix\";      //  token name\n    string public symbol = \"TRX\";           //  token symbol\n    uint256 public decimals = 6;            //  token digit\n\n    mapping (address => uint256) public balanceOf;\n    mapping (address => mapping (address => uint256)) public allowance;\n\n    uint256 public totalSupply = 0;\n    bool public stopped = false;\n\n    uint256 constant valueFounder = 100000000000000000;\n    address owner = 0x0;\n\n    modifier isOwner {\n        assert(owner == msg.sender);\n        _;\n    }\n\n    modifier isRunning {\n        assert (!stopped);\n        _;\n    }\n\n    modifier validAddress {\n        assert(0x0 != msg.sender);\n        _;\n    }\n\n    function TronToken(address _addressFounder) {\n        owner = msg.sender;\n        totalSupply = valueFounder;\n        balanceOf[_addressFounder] = valueFounder;\n        Transfer(0x0, _addressFounder, valueFounder);\n    }\n\n    function transfer(address _to, uint256 _value) isRunning validAddress returns (bool success) {\n        require(balanceOf[msg.sender] >= _value);\n        require(balanceOf[_to] + _value >= balanceOf[_to]);\n        balanceOf[msg.sender] -= _value;\n        balanceOf[_to] += _value;\n        Transfer(msg.sender, _to, _value);\n        return true;\n    }\n\n    function transferFrom(address _from, address _to, uint256 _value) isRunning validAddress returns (bool success) {\n        require(balanceOf[_from] >= _value);\n        require(balanceOf[_to] + _value >= balanceOf[_to]);\n        require(allowance[_from][msg.sender] >= _value);\n        balanceOf[_to] += _value;\n        balanceOf[_from] -= _value;\n        allowance[_from][msg.sender] -= _value;\n        Transfer(_from, _to, _value);\n        return true;\n    }\n\n    function approve(address _spender, uint256 _value) isRunning validAddress returns (bool success) {\n        require(_value == 0 || allowance[msg.sender][_spender] == 0);\n        allowance[msg.sender][_spender] = _value;\n        Approval(msg.sender, _spender, _value);\n        return true;\n    }\n\n    function stop() isOwner {\n        stopped = true;\n    }\n\n    function start() isOwner {\n        stopped = false;\n    }\n\n    function setName(string _name) isOwner {\n        name = _name;\n    }\n\n    function burn(uint256 _value) {\n        require(balanceOf[msg.sender] >= _value);\n        balanceOf[msg.sender] -= _value;\n        balanceOf[0x0] += _value;\n        Transfer(msg.sender, 0x0, _value);\n    }\n\n    event Transfer(address indexed _from, address indexed _to, uint256 _value);\n    event Approval(address indexed _owner, address indexed _spender, uint256 _value);\n}",
  "sourcePath": "/home/ayrton/env/git/kriskplatform/kriskledger/contracts/coins/TRONCoin.sol",
  "compiler": {
    "name": "solc",
    "version": "0.4.18+commit.9cf6e910.Emscripten.clang"
  },
  "schemaVersion": "1.0.1",
  "updatedAt": "2018-03-24T02:53:33.567Z"
}